:020000040800F2
:10000000C83C002055020008C95F000821530008C1
:10001000C55F0008B10E0008158D00080000000043
:10002000000000000000000000000000C1600008A7
:10003000F90F000800000000D95F0008C560000843
:100040006F0200086F0200086F0200086F020008CC
:100050006F0200086F0200086F0200086F020008BC
:100060006F0200086F0200086F020008B10F00085D
:100070006F020008BD0F00086F020008C90F0008DA
:100080006F0200086F0200086F0200086F0200088C
:10009000B50E0008C10E00086F0200086F020008CC
:1000A0006F0200086F0200086F0200086F0200086C
:1000B0006F0200086F0200086F0200086F0200085C
:1000C0006F0200086F0200086F0200086F0200084C
:1000D0006F020008696800086F0200086F020008DC
:1000E000FD0F00086F0200086F0200086F02000891
:1000F0006F0200086F0200086F020008D50F0008A9
:100100006F0200086F0200086F0200086F0200080B
:1001100075630008816300088D6100086F020008A4
:100120006F0200086F0200086F0200086F020008EB
:100130006F02000800000000000000006F020008CD
:10014000CD0E0008D90E00086F020008CD5F000830
:100150006F020008E10F0008ED0F00087568000845
:100160006F0200086F0200086F0200086F020008AB
:100170006F0200086F02000800000000000000008D
:100180006F0200086F02000800F002F800F052F859
:100190000AA090E8000C82448344AAF10107DA45E2
:1001A00001D100F047F8AFF2090EBAE80F0013F0E2
:1001B000010F18BFFB1A43F00103184738D700009E
:1001C00058D700000A4410F8014B14F00F0508BF7F
:1001D00010F8015B240908BF10F8014B6D1E05D013
:1001E00010F8013B6D1E01F8013BF9D1641E03D0EC
:1001F000641E01F8015BFBD19142E4D3704700001B
:100200000023002400250026103A28BF78C1FBD81F
:10021000520728BF30C148BF0B6070471FB50DF0B3
:100220002CFA9DE8030000F00DFA00F0DDF91FBD87
:1002300010B510BD00F036FB1146FFF7EFFF0BF0D5
:1002400021FE00F054FB03B4FFF7F2FF03BC00F003
:1002500085FB00000948804709480047FEE7FEE7A4
:10026000FEE7FEE7FEE7FEE7FEE7FEE7FEE7FEE766
:1002700004480549054A064B7047000079610008AB
:1002800089010008C8360020C83C0020C83800207A
:10029000C838002070B50D460646041F00F0B6F9B8
:1002A0000268BDB1DEB105F10B0020F00701A942E3
:1002B0003CBF002070BD23688B4238BF506813D309
:1002C0005A1A082A36D3601840F8042B216000F02F
:1002D00017FA2FE0304600F013FA002070BD2846D0
:1002E000BDE8704000F0DDB9002818BFA0423CBF57
:1002F00002464068F8D303EB040C84451CD1D0F8C7
:1003000000C06344994217D8A3EB010CBCF1080F5D
:100310000DD3D0F804C06318C3F804C0D4F800C0EB
:1003200000686044401A18602160536002E0236056
:1003300040685060201D70BD284600F0B2F90500ED
:1003400008D031462068021F284600F00BFA201D15
:1003500000F0D6F9284670BD53EA020C00F069801F
:100360002DE9F04B4FF00006002B1FBFB3FA83F5C9
:1003700003FA05F424FA05F65E4012BF1643B2FAFA
:1003800082F502FA05F4C5F120051EBF22FA05FC2C
:1003900044EA0C04203556EA044C4FEA144418BFD2
:1003A000641C4FF000084FF00009904271EB030C01
:1003B00039D3002919BFB1FA81F701FA07F6B0FA6B
:1003C00080F700FA07F6C7F120071EBF20FA07FCE6
:1003D00046EA0C062037B6FBF4FCA7EB0507103FF6
:1003E00007F01F0BCBF120062CFA06F60CFA0BFBDC
:1003F00044BFB3460026202FA4BF5E464FF0000B3B
:100400005BEA060C08BF4FF0010B19EB0B0948EB38
:100410000608ABFB027C06FB02CC0BFB03CCC01B2B
:1004200071EB0C01C1E70B46024641464846BDE868
:10043000F08B13B5084318BF4FF0FF300146AFF300
:100440000080BDE81C40704710B5431C02E010F866
:10045000011B71B18107FAD14FF0013202C88C1A29
:100460008C4314EAC211F9D0C01A0A0603D0C01E88
:1004700010BDC01A10BD0A0401D0801E10BD0902B3
:10048000FCD0401E10BD032A40F2308010F0030C57
:1004900000F0158011F8013BBCF1020F624498BFD7
:1004A00011F801CB00F8013B38BF11F8013BA2F174
:1004B000040298BF00F801CB38BF00F8013B11F0EF
:1004C000030300F04F81083AC0F0088051F8043B64
:1004D000083A51F804CBA0E80810F5E7121D5CBFFC
:1004E00051F8043B40F8043BAFF30080D20724BF2F
:1004F00011F8013B11F801CB48BF11F8012B24BFC3
:1005000000F8013B00F801CB48BF00F8012B704711
:10051000431A28BF9A427FF6B6AF10441144032A0B
:1005200040F2268010F0030F1EBF11F8013D521E4D
:1005300000F8013D10F0030F7FF4F6AF11F0030354
:1005400000F05581083AC0F00B8051F8043D083A9C
:1005500051F804CD40F8043D40F804CDFFF7F3BF57
:10056000121D5CBF51F8043D40F8043DAFF300801C
:10057000D20724BF11F8013D11F801CD48BF11F891
:10058000012C24BF00F8013D00F801CD48BF00F860
:10059000012C70474FF0000200B513469446964672
:1005A000203922BFA0E80C50A0E80C50B1F1200186
:1005B000BFF4F7AF090728BFA0E80C5048BF0CC034
:1005C0005DF804EB890028BF40F8042B08BF704792
:1005D00048BF20F8022B11F0804F18BF00F8012B04
:1005E000704770477047704770B5064C7C44064DA5
:1005F0007D4404E02046016808448047241DAC4245
:10060000F8D170BD24D3000024D300000048704707
:10061000C0010020704770477047704738B50446E6
:100620000A4600206946AFF30080002808BF38BDA5
:1006300002460099204600F014F9012038BD01203F
:1006400000F029B9F8B5AFF30080054600200C464C
:10065000102000BF0646A819A0420DD932466946AF
:100660000020AFF30080070008BF00F014F90098E5
:10067000A04218BF0546C419FFF7C8FF056007462A
:10068000F01D20F007004619284600F0E3F8B442B8
:1006900008BFF8BDA21B31463868BDE8F84000F03D
:1006A000E0B870B50646FFF7B1FF056806F10B002C
:1006B00020F00704B4429CBF002070BD2B466A683E
:1006C000BAB11068A04210D304F1080188423CBFBF
:1006D0005068586007D35168101941601168091BB0
:1006E000016058601460101D70BD13465268002AE6
:1006F000E7D121462846FFF791FF0028DED170BDE3
:1007000070B50446051FFFF781FF0068002C14BF79
:10071000446870BD002C18BFAC423CBF20466468E2
:10072000F8D301680A18AA4218BF456003D12A68A5
:1007300005461144016028684119A1421CBF6C6044
:1007400070BD6168696021680844286070BD10B59B
:1007500000F07CF8006810BD10B5044600F076F893
:10076000046010BD10B5203AC0F00B80B1E81850FD
:10077000A0E81850B1E81850A0E81850203ABFF48B
:10078000F5AF5FEA027C24BFB1E81850A0E818502A
:1007900044BF18C918C0BDE810405FEA827C24BF7E
:1007A00051F8043B40F8043B08BF7047D20728BF0C
:1007B00031F8023B48BF11F8012B28BF20F8023B5B
:1007C00048BF00F8012B7047431A28BF9A427FF6B2
:1007D000C9AF1044114410F0030F1EBF11F8013DC2
:1007E000521E00F8013D10F0030F7FF4F6AF103AEF
:1007F000C0F00A8010B531E9185020E91850103ABD
:10080000BFF4F9AFBDE81040530724BF31E9081029
:1008100020E9081044BF51F8043D40F8043D12F0AF
:10082000030F08BF7047D20728BF31F8023D48BF09
:1008300011F8012C28BF20F8023D48BF00F8012C18
:100840007047000000487047B8010020004870471A
:10085000B801002000210160C0E90110704710209C
:100860007047034640688C46002818BF88423CBF4A
:1008700003464068F8D318681844884207D00CF142
:10088000030020F00700001D411A521A0146081DFE
:100890000A60FFF735BF10B500F038F8BDE810402A
:1008A00000F02EB87546FFF7CDFFAE46050069464D
:1008B000534620F00700854618B020B5FFF7D8FC56
:1008C000BDE820404FF000064FF000074FF0000851
:1008D0004FF0000BAC46ACE8C009ACE8C009ACE88E
:1008E000C009ACE8C00921F007018D46704710B57A
:1008F0000446AFF300802046BDE81040FFF7A3BCDC
:10090000002801D000F02AB87047000010B5012877
:1009100005D0002103A000F028F8012010BD09A196
:10092000F8E7000053494752544D454D3A204F7562
:1009300074206F662068656170206D656D6F7279D7
:10094000000000003A2048656170206D656D6F728F
:100950007920636F727275707465640001491820A4
:10096000ABBEFEE726000200704770B505460C4698
:100970000A2000E06D1C00F011F835B1287800283D
:10098000F8D102E0641C00F009F814B120780028C6
:10099000F8D1BDE870400A20AFF3008008B5694681
:1009A0008DF800000320ABBE08BD000040F27020AF
:1009B000C2F200000178012904D19FED230A002131
:1009C0004160704740F28811C2F2000191ED013A96
:1009D00030EE600A90ED011A91ED035A20EE033AD1
:1009E00033EE011AB4EE451AB0EE413AB1EE456A63
:1009F00091ED002A91ED024AF1EE10FAC8BFB0EE77
:100A0000453AB4EE463A40F22821F1EE10FAB8BF6A
:100A1000B0EE453AB4EE451AB8BFB0EE431AC2F292
:100A20000001F1EE10FAC8BFB0EE431A22EE000A40
:100A300091ED002A30EE030A24EE022A32EE000A7B
:100A400080ED011A704700BF0000000040F6000072
:100A5000C4F202001021012201F084BB40F6000024
:100A6000C4F202001021002201F07CBB704700009C
:100A700040F60000C4F202002021012201F072BB06
:100A800040F60000C4F202002021002201F06ABBFF
:100A90007047000070B5002856D04EF2180145F29C
:100AA0000032CEF20001C0F2070210F0030EA0F1F6
:100AB000010C3BD051F8043C0D68002408E000BF55
:100AC0002C44A41BB54298BF1C44944235460DD219
:100AD0000E68B542F4D10E68B542F1D10E68B54248
:100AE000EED10E68B542F3D0EAE700BFBEF1010FC8
:100AF000634625D051F8043C0D68002408E000BF8F
:100B00002C44A41BB54298BF1C449442354613D2D2
:100B10000E68B542F4D10E68B542F1D10E68B54207
:100B2000EED10E68B542F3D0EAE700BF03461FFAE4
:100B30008CF0032830D207E0BEF1020F06D1831EED
:100B40001FFA8CF0032827D270BD00BF51F8043C77
:100B50000E68002408E000BF3444641BAE4298BF16
:100B60001C4494422E460DD20D68AE42F4D10D685D
:100B7000AE42F1D10D68AE42EED10D68AE42F3D077
:100B8000EAE700BFC31E1FFA8CF0032804D2DBE79C
:100B9000043B180408BF70BD51F8040C0E68002413
:100BA00008E000BF3444641BAE4298BF0444944242
:100BB0002E460DD20D68AE42F4D10D68AE42F1D191
:100BC0000D68AE42EED10D68AE42F3D0EAE700BF49
:100BD00051F8040C0E68002408E000BF3444641B84
:100BE000AE4298BF044494422E460DD20D68AE42E8
:100BF000F4D10D68AE42F1D10D68AE42EED10D6870
:100C0000AE42F3D0EAE700BF51F8040C0E680024AE
:100C100008E000BF3444641BAE4298BF04449442D1
:100C20002E460DD20D68AE42F4D10D68AE42F1D120
:100C30000D68AE42EED10D68AE42F3D0EAE700BFD8
:100C400051F8040C0E6800240AE000BF3444641B11
:100C5000AE4298BF044494422E46BFF499AF00BF01
:100C60000D68AE42F2D10D68AE42EFD10D68AE42D2
:100C7000ECD10D68AE42F3D0E8E7000080B54EF24B
:100C80001801CEF20001C0EB001051F804CC4FEA7D
:100C9000401E0868002309E003449B1A904298BF55
:100CA00063447345104628BF80BD00BF0A68904268
:100CB000F2D10A689042EFD10A689042ECD10A68FA
:100CC0009042F3D0E8E7000010B5FFF7CFFEFFF742
:100CD000DFFE0AF067FD04460AF08CFE204310BDDB
:100CE0002DE9F04F83B002920E460190FFF7B6FE59
:100CF000922000F0C5F8922000F0C2F8552000F0D4
:100D0000BFF88046552000F0BBF88346552000F020
:100D1000B7F88246552000F0B3F80446552000F09D
:100D2000AFF80746552000F0ABF80546FFF78EFEFA
:100D300048EA0B2040F2080900B2C2F2000900EEB6
:100D4000100A99ED001AB8EEC00A4AEA042021EE12
:100D5000000A00B286ED000A00EE100A47EA0520FC
:100D600000B299ED001A02EE100AB8EEC00AB8EE11
:100D7000C22A21EE000A21EE021A86ED010A86ED52
:100D8000021AFFF77DFE802000F07AF8552000F06F
:100D900077F80646552000F073F8552000F070F8FB
:100DA0008246552000F06CF80546552000F068F8A2
:100DB0008346552000F064F80446552000F060F8A2
:100DC0000746552000F05CF88046FFF751FE0F2ED5
:100DD00025D14AEA052000B200EE100A99ED011A69
:100DE000B8EEC00A01994BEA042021EE000A00B2D5
:100DF00081ED000A00EE100A47EA082000B299EDE2
:100E0000011A02EE100AB8EEC00AB8EEC22A21EEAC
:100E1000000A21EE021A81ED010A81ED021AFFF7A4
:100E20001DFEA22000F02CF8A22000F029F8552089
:100E300000F026F80446552000F022F80546FFF79A
:100E400005FEE00040EA55104FF600010022CFF603
:100E5000FF71B2EB902F18BF084300EE100AB8EEF6
:100E6000C00AB4EE001A20EE010AB3EE071A029887
:100E700030EE010A80ED000A03B0BDE8F08F0000FB
:100E800080B582B08DF8070042F2B0104FF47A7C42
:100E9000C2F200000DF107010DF106020123CDF8A9
:100EA00000C002F025FD9DF8060002B080BD0000E4
:100EB000FEE7000041F61420C2F2000000F054BB2F
:100EC00041F61420C2F2000000F04EBB41F63C2077
:100ED000C2F2000000F048BB41F63C20C2F2000024
:100EE00000F042BB002070470020704710B541F26F
:100EF000F064C2F2000440F6F061C2F20001204644
:100F0000002205F08BFE40F2F061C2F200012046A3
:100F100005F076FE002010BD70B50B680246DBB10F
:100F200040F2682CC2F2000CDCE9005442F6C46EB8
:100F30000020C2F2000E02E0013098420CD26E1C7A
:100F40006FF3DF26A642F7D0135CCCF800600EF8F2
:100F500005300B683546EFE741F2F064C2F2000459
:100F60002046114605F04CFE204605F023FE0020E9
:100F700070BD00000020704710B541F2F062C2F26F
:100F80000002D2F8BC22D2F81432002B1CBF012080
:100F900010BD41F2F064C2F200040A460146204648
:100FA00005F03CFE2046BDE8104005F0C5BE00003F
:100FB00041F62430C2F2000000F0E4BD41F66420A6
:100FC000C2F2000000F0DEBD41F6C420C2F2000013
:100FD00000F0D8BD41F68430C2F2000000F0D2BD6E
:100FE00041F64440C2F2000000F0CCBD41F6E430CE
:100FF000C2F2000000F0C6BD7047000010B540F618
:101000000004C4F2020420464FF4006101F09CF891
:1010100090B120464FF40051012201F0A3F842F2B2
:10102000E020C2F2000002F0F3FE4FF40060BDE8E1
:10103000104000F09FBF00BF9FED0E0AF0EE400A87
:101040000AF0B8FF42F2E020C2F2000002F036FFE0
:1010500020464FF40051002201F084F820464FF45E
:101060008041002201F07EF84FF40060BDE810409E
:1010700000F080BF00000000EFF3108072B600BFE8
:10108000FEE7000070B581B00022009290F83C208D
:10109000012A03D10221084601B070BDD1F800E059
:1010A0000122BEF10A0F80F83C200BD31FFA8EF20A
:1010B0005200066812FA8EF2A2F11E0306F10C022B
:1010C00005E000BF06680EEB4E0306F110024FF07C
:1010D000070C15680CFA03F4A54315608D681468B5
:1010E00005FA03F3234313604968062906D801EB88
:1010F0008101053906F134020AE000BF0C2901EB39
:10110000810187BF413906F12C02233906F13002F3
:101110001F2314688B4024EA030342F2043C13604B
:10112000C4F2010C1FFA8EF3146803FA01F1ACF556
:10113000417321439E4211603ED1BEF1120F07D18F
:10114000DCF8001041F48001CCF8001034E000BF5E
:101150002EF0010110292FD1DCF80010BEF1100F84
:1011600041F40001CCF8001026D140F2B401C2F2E3
:10117000000109684DF68362C4F21B32A1FB021222
:10118000910C01EB8101490000910099A1B10099F6
:1011900001390091009979B10099013900910099C4
:1011A00051B1009901390091009929B10099013993
:1011B000009100990029EAD1002180F83C100846EE
:1011C00001B070BD002804BF0120704710B504466F
:1011D000006C00283ED0206CC00645D4206C41F243
:1011E00002118843023042F204312064C4F201014A
:1011F000086820F4403008600A6894E809101A432F
:10120000D4F810E00A604168012321F48071416044
:101210004168C0F6007341EA0E214160416821F047
:1012200040714160416841EA0C014160816821F4EC
:1012300000618160E168826811438160A16A82680F
:10124000994222F070628260826813D122F040518C
:1012500019E000BF204600F065F80020606484F8C3
:101260003C00206CC006B9D50120002184F83C1058
:1012700010BD00BF11438160816821F04051816041
:10128000E16A826811438160816821F00201816016
:101290008168227E94F8203041EA420181604168F1
:1012A00083B141F40061416041684EF2000221F4D3
:1012B00060414160616ACFF6FF72436802EB4131E1
:1012C000194301E021F400614160C16A40F2000C61
:1012D00021F47001C162E2696169CFF6F07CC36AF2
:1012E0000CEB02521A43C262826822F400728260DE
:1012F00094F83020836843EA42228260826822F4B4
:1013000080628260826842EA81218160002060649C
:10131000216C012262F301012164002184F83C1058
:1013200010BD000080B586B042F200010068C4F232
:101330000101002288420592049201D006B080BDCE
:1013400043F630000092C4F20200436943F4807314
:101350004361436903F480730093009B0092036828
:1013600043F001030360006800F001000090009862
:10137000102001900320CDE9020201F5604001A98F
:1013800000F004FE06B080BD10B590F820E0D0F863
:1013900000C0AEF1010EBEF1010FDCF808E011D87B
:1013A0001EF0E05F18D0CEF3016EBEF1030F1DD129
:1013B00000F1240101204FF400020B681A430A6077
:1013C00010BD00BF00F1240101204FF480220B6802
:1013D0001A430A6010BD00BF00F1240101204FF440
:1013E00000120B681A430A6010BD00BF012000FA0A
:1013F0000EF01860886818B14B6840EAC30001E03D
:1014000008684005D1E9033403430CEB0E10C0F823
:101410008031C0F88441097D012905D100F5C271F0
:101420000B6843F480730B605168C0F88C1112682C
:1014300000F5C071C0F88821002001220B681A4312
:101440000A6010BD7047000010B590F82040013CC4
:10145000012C71D8D0F800C0002977D0DCF81040FA
:10146000A40777D00CEB011CDCF8B0410CF5D87E5A
:1014700014F004049460DCF8B04119BFE40854602F
:10148000640D1460DEF80040002904F00204D4600A
:10149000DCF8B44104F00F041461DCF8B441C4F387
:1014A00007249461DCF8B4414FEA14445461DCF839
:1014B000B8211A70026802EB0112D2F8B8214FEA83
:1014C00012225A70026802EB0112D2F8B8214FEAD8
:1014D00012429A70026802EB0112D2F8B8214FEA68
:1014E0001262DA70026802EB0112D2F8BC211A71A2
:1014F000026802EB0112D2F8BC214FEA12225A71A3
:10150000026802EB0112D2F8BC214FEA12429A7132
:10151000026802EB0112D2F8BC214FEA1262DA71C2
:10152000006814BF00F1100100F10C01002020221E
:101530000B681A430A6010BD00F1240101204FF42A
:1015400080220B681A430A6010BD00BFDCF80C4013
:10155000A40787D100F1240101204FF400120B6889
:101560001A430A6010BD00002DE9F04F81B0044617
:1015700000684669D0F804908768D0F80CB0D0F8BD
:1015800010A0D0F81880F10704D1002530071DD431
:1015900024E000BFF90710D00121BA07816009D407
:1015A000780700F1AF80380700F1B680204600F0E0
:1015B0007FFA02E0204600F07DFA0025F80500F1F0
:1015C0008780F80300F1B180300707D51BF01000C9
:1015D00004D0206845F400751021C160700708D55B
:1015E0001BF0080005D020680821C160204600F0EB
:1015F00013FAB00706D52068C068800702D02046DD
:1016000000F00CFA700607D51AF0100004D020681C
:1016100045F4806510210161B00608D51AF0080074
:1016200005D0206808210161204600F03BFAF00651
:1016300006D520680069800702D0204600F034FA01
:10164000B00308D519F0100005D0206810214160C2
:10165000204600F02BFAF00308D519F0080005D059
:10166000206808214160204600F02EFA300440F145
:101670009B805FEA497040F1948006F4807008EA2C
:10168000102028435FEA8871014648BF41F00201FB
:10169000B20558BF01465FEA48700D4648BF45F0A5
:1016A0000405700558BF0D46300540F17A8018F0EA
:1016B000700000F076801038000905286CD8DFE84B
:1016C00000F003595D61656945F0080564E000BFFD
:1016D00020684FF48071BA0581600BD4780515D469
:1016E00038051DD4204600F0E7F9F8037FF56CAF0C
:1016F0001BE000BF204600F0E1F9F8037FF564AF7E
:1017000013E000BF4FF4006558E700BF05F5005532
:10171000F8037FF559AF08E04FF480554EE700BF5E
:1017200005F58045F8037FF54FAF20684FF4803111
:10173000BA0381600AD4780310D4380314D4204645
:1017400000F0BEF930073FF541AF47E7204600F013
:10175000B9F930073FF53AAF40E700BF05F500455E
:1017600030073FF533AF39E705F5803530073FF5F2
:101770002DAF33E745F010050EE000BF45F0200522
:101780000AE000BF45F0400506E000BF45F08005D7
:1017900002E000BF45F480752068816921F0700186
:1017A000816120680421416055B1606A40EA050109
:1017B0002046616201B0BDE8F04FFFF743BE00BFB5
:1017C00001B0BDE8F08F0000B0B5C8B1044690F894
:1017D000200010B9204600F071F82068016841F03F
:1017E0000101016000F0C4FC054600BF20684168AB
:1017F000C90707D100F0BCFC401B0B28F6D312E050
:101800000120B0BD016821F00201016000F0B0FCD0
:10181000054600BF2068416889070DD500F0A8FC87
:10182000401B0B28F6D3606A052140F4003060624B
:10183000012084F82010B0BD217E0268012922F029
:10184000800208BF80320260617E0268012922F0B6
:10185000400208BF40320260A17E0268012922F0E6
:10186000200208BF20320260E17E0268012922F0D6
:10187000100218BF10320260217F0268012922F095
:10188000080208BF08320260617F0268012922F065
:10189000040208BF04320260D4E901C2D4E903356E
:1018A00061691A432A431143ACF101021143C1613A
:1018B00000200121606284F82010B0BD10B586B010
:1018C000006846F60002C4F2000200219042CDE911
:1018D0000411CDE9021101914AD046F20041C4F24F
:1018E0000001884240F0958040F2C821C2F2000118
:1018F0000A6843F64000C4F20200531C0B6052B960
:1019000000210091016841F000710160016801F05F
:101910000071009100990021009150F8102C42F0C4
:10192000020240F8102C50F8100C00F00200009059
:1019300000984FF4407001900220CDE9020103208D
:1019400004900920059040F20040C4F2020001A971
:1019500000F01CFB14200321002200F089FC14205D
:1019600000F076FC15200321002215244CE000BF76
:1019700043F64000C4F202000091016841F080612A
:101980000160016801F080610091009940F2C82176
:10199000C2F200010A68531C0B6052B90021009189
:1019A000016841F000710160016801F0007100916F
:1019B00000990021009150F8102C42F0020240F8EA
:1019C000102C50F8100C00F00200009000984FF41A
:1019D000405001900220CDE902010320049009202B
:1019E000059040F20040C4F2020001A900F0CEFAD6
:1019F00040200121002200F03BFC402000F028FCA8
:101A0000412001210022412400F032FC204600F058
:101A10001FFC06B010BD00007047000080B58AB002
:101A200041F61421C2F2000188421DD00020CDE908
:101A3000000041F63C20C2F2000003AA6B460021E0
:101A4000FFF702FD18B9BDF80C0009280AD142F6CB
:101A5000BC6142F6C062C2F20001C2F200026846F6
:101A60000AF0A2FA0AB080BD0020CDE9000041F6DC
:101A70001420C2F2000003AA6B460021FFF7E4FC29
:101A800018B9BDF80C000928ECD142F2785142F2A5
:101A90007C52C2F20001C2F2000268460AF084FAE7
:101AA0000AB080BD7047000070470000704700001A
:101AB000704700007047000070470000704700004A
:101AC00070470000704700007047000070B5866DD9
:101AD000044600F04DFB94F8351002292ED105463E
:101AE0002068216C026822F016020260426922F02E
:101AF0008002426109B9A16C19B1016821F00801A5
:101B00000160016821F0010101600068C00708D090
:101B100000F02EFB401B052818D820680068C0077D
:101B2000F6D1E06D3F2101FA00F0B060012084F8A9
:101B300035000020002184F8341070BD80206065DD
:101B40000120002184F8341070BD00BF20206065A2
:101B5000032084F83500002184F8341070BD0000A3
:101B600090F83510022909D1052180F83510006858
:101B7000016821F00101016000207047802141656A
:101B800001207047F0B581B004460020009040F27B
:101B9000B400C2F200000268D4E9166048F2B5133E
:101BA00037680821C1F64E3381403942A2FB032534
:101BB0000CD0226813685B0708D5136823F0040370
:101BC0001360B160616D41F00101616501218140E7
:101BD000394208D022685269120604D5B160616D9D
:101BE00041F00201616504218140394208D0226838
:101BF0001268920704D5B160616D41F0040161651E
:101C000010218140394217D020680268120713D58D
:101C1000B16002680168520308D4C90508D401689C
:101C200021F008010160216C21B905E008033FD4CF
:101C3000216C09B120468847E16D202000FA01F2AD
:101C40003A4241D020680368DB063DD5B26094F883
:101C500035300268052B1BD122F016020260426962
:101C600022F080024261226C0AB9A26C1AB10268A9
:101C700022F0080202603F208840B060012084F812
:101C80003500216D0020002984F8340052D157E03E
:101C90000168520310D4C90512D4016821F0100163
:101CA0000160012084F83500002084F8340007E04A
:101CB000A16C0029BED1BFE7080301D4616C00E02C
:101CC000E16B09B120468847606DC8B3606DC007FD
:101CD0002ED0052084F835002068A90A026822F079
:101CE00001020260009A01328A4200921AD8026808
:101CF000D20717D0009A01328A42009212D80268A5
:101D0000D2070FD0009A01328A4200920AD80268A4
:101D1000D20707D0009A01328A42009202D80268A4
:101D2000D207DFD1012084F83500002084F8340088
:101D3000E16C29B1204601B0BDE8F040084700BF82
:101D400001B0F0BD2DE9F041044600F011FA002C7D
:101D50004ED00546022084F835000020216884F822
:101D60003400086820F0010008600868C00708D047
:101D700000F0FEF9401B05286CD821680868C007F0
:101D8000F6D1086848F23F02CFF21002D4E90135DB
:101D9000024004F10C0E9EE8C1511A432A4310433D
:101DA0003043384340EA0800626A40EA0C00042AE3
:101DB00040EA0E0320D1D4E90A5E206B4EEA03020A
:101DC000104308604869BEF1000F20F0030040EAAC
:101DD000050040F0040C15D0B8F5005F42D0B8F112
:101DE000000F51D1022D52D0012D47D055B94EE0F0
:101DF0000120BDE8F08100BF0B60486920F00700BA
:101E000040EA020C6FF00F004AF6AB2250FA81F064
:101E1000CAF6AA22A0FB02231A094DF6C403C0F693
:101E200000039A5C40F2FF335F284FF03F00C1F897
:101E300014C021EA030100FA02F088BF0431C4E9AA
:101E400016128860002301220020636584F8352083
:101E5000BDE8F081032220230320636584F8352048
:101E6000BDE8F081032DCDD8012240230120DFE819
:101E700005F0030E030500BFE7E700BFAEF1C07039
:101E8000B0FA80F0400904E0032D04D3BAD1CEF3B8
:101E900000600028B6D0012240230120636584F849
:101EA0003520BDE8F081000070B590F834C0BCF179
:101EB000010F46D04FF0010C80F834C0D0F858E044
:101EC00090F835C0BCF1010F38D14FF0020C80F80A
:101ED00035C04FF0000CC0F854C0D0F800C0846882
:101EE000056CC06DDCF80060402C26F48026CCF830
:101EF0000060CCF804300B4604BF13460A463F216D
:101F000001FA00F0CCF80830CCF80C20CEF808002C
:101F1000DCF8000040F01600CCF800002DB1DCF831
:101F2000000040F00800CCF80000DCF8000040F0B1
:101F30000100CCF80000002070BD00BF002180F837
:101F40003410022070BD0000B0B5044600F010F956
:101F5000054640F20000C2F200000078611C18BF84
:101F6000044400BF00F004F9401BA042FAD3B0BD06
:101F70007047000043F61441C4F201010A680242AE
:101F800014BF08607047FFF7F3BF00002DE9F04F62
:101F900082B000F13E4241F6004502F1FF77C4F203
:101FA000020508224FEAB726A84208BF0722072EDB
:101FB00038BF4FEAB7224FF0010A002400274FF044
:101FC0000008009208E000BF023708F10108202F46
:101FD00004F1040400F0B4800E680AFA08F916EA65
:101FE000090FF1D0D1F804A00AF0030BABF1010600
:101FF000012E17D80322866802FA07FECA6826EA6D
:102000000E06BA40324382604268CAF3001522EAE3
:10201000090205FA08F54FEA480C6FEA0E062A4352
:1020200042600BE00322BA40D643BBF1030FBC462B
:1020300004D1BC464FF0030B22E000BFC2688D689C
:10204000324005FA0CF52A43BBF1020FC26017D1EA
:102050006FF0030202EA5802024404F01C030F2549
:10206000D2F820E005FA03FA0D692EEA0A0E05FA05
:1020700003F343EA0E031362D1F804A00AF0030B42
:1020800002680BFA0CF332401A431AF4403F4FF047
:10209000010A026098D0002243F644030192C4F280
:1020A00002031A6843F6004E42F480421A601A682E
:1020B000C4F2010E02F480420192019A28F0030258
:1020C0004FF6084C7244CFF6FF7C52F80C3004F007
:1020D0000C060F25B540AB43009D05FA06F63343C9
:1020E00042F80C30DEF808204B6842EA090643F655
:1020F0000C4CDD0258BF22EA0906CEF80860C4F293
:10210000010CDCF800209D0242EA090658BF22EAD1
:102110000906CCF80060DEF804209D0342EA0906B7
:1021200058BF22EA0906CEF80460DEF80020DB037F
:1021300042EA090658BF22EA0906CEF8006043E7E2
:1021400002B0BDE8F08F00000069084018BF012010
:1021500070470000426902EA0103914341EA0341EA
:1021600081617047002A08BF09048161704700003F
:1021700043F2C460C2F200000068704740F2000001
:1021800043F2C461C2F20000C2F2000100780A68A2
:10219000104408607047000080B543F60040C4F268
:1021A0000200016841F400710160016841F480613E
:1021B0000160016841F480710160032000F084F83F
:1021C000012000F005F800F027F8002080BD000095
:1021D00070B540F20006C2F2000640F2B401327857
:1021E000C2F200014FF47A730968B3FBF2F20446BD
:1021F000B1FBF2F1084601F007FD0F2C4FF001058D
:1022000008D838B94FF0FF3021460022002500F0F1
:102210002FF87460284670BD82B0002043F640015C
:102220000190C4F202014A6842F480424A604A685E
:1022300002F480420192019A0090086840F08050B8
:102240000860086800F080500090009802B0704765
:10225000002848BF704700F01F01012202FA01F177
:102260004EF200124009CEF2000242F820107047F0
:1022700010B54EF60C5CCEF2000CDCF80030C3F367
:10228000022E8EF00704042C28BF0424BEF10303A1
:102290004FF0FF3E0EFA04F438BF0023A1439940EB
:1022A0000EFA03F39A43114300F00F02043A62441A
:1022B00009010C3200F16043B0F1FF3FC8BF03F5E4
:1022C0006442117010BD00004EF60C51CEF20001B8
:1022D0000A684FF6FF031A4060F30A2242F080605A
:1022E00040F0FD70086070477047000002680020F1
:1022F000516270472DE9F043D0F80090D9F82400DE
:10230000A1B1D9F82830B1F1010800EB13435DD039
:10231000A8F10100C0B2032808F0030C0ED24FF060
:10232000010E0027BCF1000F33D14FE040EA02401C
:10233000C9F828000020BDE8F08300BF08F0FC0EBB
:1023400009F1F404002009F5827500BF54F8107FEC
:10235000064603EB174046F00103DBB246F00207E6
:1023600055F82330FFB255F8277000EB134000EB0F
:10237000174346F00300C0B255F82010301DC7B215
:10238000774503EB1143E1D106F1050EBCF1000FD7
:102390001CD009EB8700D0F80401BCF1010F03EB5E
:1023A000104313D05FFA8EF009EB8000D0F80401DF
:1023B000BCF1020F03EB104308D00EF10100C0B2D4
:1023C00009EB8000D0F8040103EB104343EA02401C
:1023D00009EB8801C1F804010020BDE8F08300008A
:1023E000D0F8080504F0A0BF01EBC102D0F8083511
:1023F00000EB8200C26C184604F0FEBE01EBC10285
:10240000D0F8083500EB8200D0F88C22184604F092
:102410004FBF0000D0F8080504F088BF10B504468F
:10242000080601F00F0000EBC00104EB810205D4A7
:1024300002F51F71002382F87D3204E0012302F1CE
:102440003C0182F83D3094F8BC240870012A04BF96
:10245000022010BD2068012284F8BC2405F02AFD6A
:10246000002084F8BC0410BDB0B54268044601F0F9
:102470000F00904284BF0120B0BD09060AD400EBD2
:10248000C00104EB810202F51F71002382F87D3246
:1024900009E000BF00EBC00104EB8102012302F15F
:1024A0003C0182F83D3094F8BC240025012A8D704F
:1024B000087004BF0220B0BD2068012284F8BC244B
:1024C00006F050F8284684F8BC54B0BD01F00F0166
:1024D00001EBC10100EB8100D0F89C0270470000C5
:1024E000B0B50546080601F00F0000EBC00105EB92
:1024F000810C05D40CF51F7100248CF87D4204E09A
:1025000001240CF13C018CF83D404C780870002C03
:10251000CA600B7118BF0881022B04BF00204871EC
:1025200095F8BC04012804BF0220B0BD2868012230
:1025300085F8BC2405F078FB002085F8BC04B0BD0C
:1025400080B501F00F0C0CEBCC0100EB810ECEF846
:1025500094320023CEF89C328EF87D320369CEF897
:102560008C22012B8EF87CC208BFCEF89022006826
:102570000EF51F71DAB2BCF1000F03D006F03AF885
:10258000002080BD05F042FF002080BDB0B50446AC
:10259000406801F00F05854284BF0120B0BD0806E8
:1025A0000AD401EBC10004EB800000F51F7100228A
:1025B00080F87D2209E000BF05EBC50004EB800038
:1025C000012200F13C0180F83D2094F8BC04012276
:1025D00001288A700D7004BF0220B0BD206884F805
:1025E000BC2405F0E7FF1DB1002084F8BC04B0BD99
:1025F0002068217C04F2C44205F086FF002084F8A4
:10260000BC04B0BD10B501F00F0C0CEBCC0100EB1D
:10261000810E714601F83CCF8B6100230B62036988
:1026200001244C70012B0A6108BFCEF850200068CD
:10263000DAB2BCF1000F03D005F0DCFF002010BDC2
:1026400005F0E4FE002010BD2DE9F04F8BB00568C9
:102650008246284606F0C8F910B10BB0BDE8F08FED
:10266000DAF8000006F0EEF90028F6D0D5F80808F0
:10267000C0F30D21DAF80000CAF8FC1406F0E2F904
:102680000146DAF80000890703D5416901F002012B
:10269000416105F50061039106F0D4F90146DAF8CD
:1026A0000000C90605953BD5816921F010018161C3
:1026B0002C6AC4F34340062804F00F0518D0022802
:1026C00027D147F6F07014EA000622D005EBC500CA
:1026D0000AEB8007D7F88C1234090598224606F0D9
:1026E000B5F9D7F88C0200EB1610C7F88C0207E09A
:1026F00005980AF2C441082206F0A8F9C4F30A14A6
:1027000005EBC5000AEB8000D0F89C122144C0F80C
:102710009C12DAF80000816941F010018161059D89
:1027200006F090F90003CDF828A040F1ED80DAF82A
:10273000000006F065F9002800F0E68006460AF27F
:10274000C4400AF527784FF430644FF0000B09902D
:102750001BE000BF2819022181605FEA8A6042BF46
:102760002819202181605FEA8A40DDF828A042BF55
:1027700028194FF4005181600BF1010B760804F128
:10278000200408F1240800F0BF80F007F4D0DAF844
:1027900000005FFA8BF9494606F04CF98246C00703
:1027A00062D02819012181600A9F38682118036CC2
:1027B0008A683F69012F29D1170735D4970600F1A0
:1027C0009B8012F0280F4FD143F20B07C4F65477C9
:1027D000BB4202D312F400422FD158F8042C0969ED
:1027E000BBF1000F6FF3DF41A2EB0101C8F800104D
:1027F00035D10A9BD3F89422002A00F08380D3F8C5
:102800008C020844C3F88C0229E000BF43F20B0796
:10281000C4F65477FF37BB4216D110040DD490068E
:1028200044BF202088601AE043F20B00C4F65470C5
:10283000834219D312F4004016D04FF40040886050
:102840005FEA0A7013D437E0BBF1000F07D10A9991
:10285000D1F8941219B90021099A05F055FE0A9889
:102860004946FFF7CBFD00BF5FEA0A7024D528195F
:10287000082181600A9843F20B020068C4F6547282
:10288000056C20448168571EBD4205D911F40041F2
:102890001CBF4FF4004181600A9800F087FCBD42E4
:1028A000059D09D90A980069012805D10A98099A55
:1028B0000068012105F028FE5FEACA6042BF2819BE
:1028C000102181605FEA8A707FF547AF6869000672
:1028D00004D50399486840F48060486018F81D0CDE
:1028E00001287FF437AF002008F81D0C0A984946EC
:1028F00000F046FB2EE700BF202088605FEA0A70E8
:10290000B5D4D9E70121A7E7DAF8000006F09AF874
:10291000039E400340F1DE80DAF8000006F068F81C
:10292000002800F0D78005F5106104910AF2C44137
:102930004FF0000B029104E040080BF1010B00F096
:10294000C980C107F8D00690DAF800005FFA8BF171
:10295000099106F05DF8049F0446C00728D00BF0EB
:102960000F00716B012202FA00F021EA000070638F
:1029700007EB4B108260DAF81000012814D10BEB42
:10298000CB000AEB8000D0E91212BBF1000F11441A
:10299000C16409D1DAF8540030B9DAF80000029ABB
:1029A000012105F0B1FD00BF09995046FFF71CFD5C
:1029B000200742BF07EB4B1008218160E00642BFB1
:1029C00007EB4B1010218160600642BF07EB4B10F4
:1029D00040218160A00715D52846594605F09AFF89
:1029E0000BEBCB000AEB800010F83F1F012905D14B
:1029F000002101700999504600F0BEFA07EB4B1018
:102A0000022181602006069896D50BEBCB010AEBDC
:102A10008104A14659F8542FC84658F8087FBA4295
:102A20008AD3DAF8005054F8483FD11B994288BF46
:102A30001946089505EB4B1CDCF818590331ADB26B
:102A4000B5EB910F28BFBA4204D8059DBA423FF6B4
:102A500073AF33E004F1040ADAF800100CF51065E6
:102A6000079400BF0A98D41B9C42067C88BF1C4672
:102A7000DDE90802A3B2009606F012F9DAF80000C8
:102A8000E31C0119D8F80000CAF800100719C8F8AB
:102A90000070AA6996B2D9F80020B6EB930F28BF50
:102AA000BA4203D907980368DCE700BFDDF828A025
:102AB000039EDDE90550BA423FF63EAF089F0BF09A
:102AC0000F02D7F83418012303FA02F29143C7F832
:102AD000341831E7DAF8000005F0B4FF002823D4F9
:102AE000DAF8000005F0AEFF00053AD4DAF800008D
:102AF00005F0A8FFC00444D5D5F80408102120F043
:102B00000100C5F80408DAF8000005F003FFDAF860
:102B10000400002800F0F580411E032900F0030C9A
:102B200032D200219CE000BF706820F0010070608C
:102B30009AF8F404012807D100208AF8F4045046DA
:102B40000021FFF7D1FB02E0504600F013FBDAF85A
:102B50000000416901F00041416105F073FF00058B
:102B6000C4D5B068C00702D0504600F047FBDAF881
:102B70000000416901F40061416105F063FFC00498
:102B8000BAD4DAF80000EAE020F0030E05F5366367
:102B90004FF6A0564FF6C0554FF6E0544FF6006082
:102BA00000214FF67F37CFF6FF76CFF6FF75CFF6D1
:102BB000FF74CFF6FF7000BFA3F5187297609A59A3
:102BC000043122F400129A5143F8587C53F8602CD7
:102BD0008E4522F4001243F8602C53F8602C42F02A
:102BE000006243F8602CA3F5107297605A5922F4E2
:102BF00000125A5143F8387C53F8402C22F400124A
:102C000043F8402C53F8402C42F0006243F8402C2B
:102C1000A3F5087297601A5922F400121A5143F86A
:102C2000187C53F8202C22F4001243F8202C53F87F
:102C3000202C42F0006243F8202CA3F5007297602C
:102C40001A5822F400121A509F601A6822F40012D7
:102C50001A601A6842F000621A6003F18003ABD177
:102C6000059D039EBCF1000F4BD005F5106000EBF5
:102C700041124FF67F334F019360C65905F530621C
:102C800026F40016C65102EB4116B360D659BCF1CA
:102C9000010F26F40016D651D65946F00066D651DB
:102CA000039E2ED04F1C00EB47157E01AB6085596B
:102CB00002EB471725F400158551BB609359BCF111
:102CC000020F23F400139351935943F0006393517F
:102CD000039E16D0023100EB41174FF67F364B01B1
:102CE000BE60C75827F40017C75002EB411086603A
:102CF000039ED05820F40010D050D05840F000600F
:102D0000D050F06940F00110F061DAF8300048B1BD
:102D1000D6F8840040F00B00C6F8840006F14400A9
:102D200007E000BF706942F22B010843706106F1B1
:102D3000100001680AF2C44241F00B0101603068E2
:102D400020F4FE603060DAF800009AF8101005F008
:102D5000DBFBDAF80000416901F48051416105F0C4
:102D600071FE0146DAF8000089041AD504F0A2FFCA
:102D7000DAF8000005F02AFEDAF80040CAF80C0084
:102D800000F006FB9AF80C200146204605F0F8FEFC
:102D9000504600F0D9F9DAF80000416901F4005119
:102DA000416105F04FFE000706D4DAF8000005F097
:102DB00049FE00060DD435E0504600F0DFF9DAF8A0
:102DC0000000416901F00801416105F03BFE000689
:102DD00028D50599886920F080008861DAF8040018
:102DE00002281FD30AF2A324012504E001358542FD
:102DF00004F1240416D221780129F7D105F00F003F
:102E000000EBC0000AEB80022806DAF8000002F1AD
:102E10003C0158BF02F51F7105F0ECFCDAF8040024
:102E2000E4E700BFDAF8000005F00CFEC0024FD462
:102E3000DAF8000005F006FE059D800240F17E8074
:102E4000DAF8040002282AD3013805F532610AF5C0
:102E50002972012306E000BF013801F1200102F1CF
:102E600024021CD00F681678012EF5D1B7F1FF3F70
:102E7000F2DCDAF8FC6407F4803706F00106B742AA
:102E8000EAD102F8013CAF6947F08007AF616F6992
:102E90003F06E1D40399486840F400704860DAF8CE
:102EA0000000416901F40011416105F0CBFD4000D3
:102EB0004AD55046FFF794FADAF80000416901F06C
:102EC0008041416105F0BEFD40077FF5C6AB42E0A1
:102ED000DAF80400022825D305990AF1640501F502
:102EE00012640126012705E001372034874205F1ED
:102EF000240517D221682A78012AF5D1B1F1FF3FC4
:102F0000F2DC07F00F0000EBC0000AEB8001DAF8FA
:102F100000003C3105F8016C05F06CFCDAF80400A7
:102F2000E2E700BFDAF80000416901F48011416175
:102F300005F088FD059D80023FF582AFDAF80000BC
:102F400005F080FD4000B4D4DAF8000005F07AFD09
:102F500040077FF582ABDAF800004468610704D5CA
:102F60005046FFF757FADAF8000041682143416004
:102F70000BB0BDE8F08F0000D0F8080504F032BABD
:102F8000D0F8080504F042BA2DE9F04F8BB00028C4
:102F900000F086800446056890F8BD0428B900203A
:102FA00084F8BC04204600F08FF8032084F8BD04A8
:102FB000E86BC0055CBF00202061206805F01EFAA8
:102FC000206804F11C0A0A90D4E90C5004F1040EA4
:102FD0009AE8C0079EE80E58CDE9085003A880E89B
:102FE000C0030A988DE80058CDF81CA004F072FECA
:102FF000002852D120680021002505F07DFD616880
:1030000061B301200023002203EBC30304EB830719
:1030100087F83C20D3B20132A7F84430D3B29942AA
:1030200087F83D0087F84050C7E912557D65EBD819
:1030300000200023002200BF03EBC30304EB83073F
:1030400087F87C220132D3B2994287F87D0287F853
:103050008002C7E9A200C7F89402EDD8A0682268F0
:103060000A90D4E90C5004F1140E04F1240AD4E9B6
:1030700003379EE840589AE80007CDE9085002A8B7
:1030800080E8005810460A9ACDE90076CDE9058916
:10309000CDF81CA004F070FF40B1022084F8BD04FC
:1030A000012528460BB0BDE8F08F00BF00250120A8
:1030B00084F8385084F8BD04206804F04DFF284699
:1030C0000BB0BDE8F08F0000B0B586B00068B0F17D
:1030D000A04F01D006B0B0BD002543F630040195E5
:1030E000C4F20204206801A940F0010020602068B9
:1030F00000F00100019001984FF4C05001900220AF
:10310000CDE90205032004900A2005900020C4F2B6
:103110000200FEF73BFF6068002140F08000606025
:1031200000956069002240F480406061606900F4AD
:103130008040009000984320FFF79AF84320FFF763
:1031400087F806B0B0BD000010B50446C06828B1CD
:10315000022818BFFDF790FF012100E00021D4F8FC
:10316000080504F0D9F9D4F80805BDE8104004F0CA
:1031700087B90000D0F8080504F0B6B9D0F8080502
:1031800004F0BCB910B5044690F8BC04012804BF93
:10319000022010BD012084F8BC0484F83810206897
:1031A00005F0DCFC002084F8BC0410BDD0F8082534
:1031B00000F2C441104604F0C5B9000010B5044641
:1031C00090F8BC04012804BF022010BDA16A206849
:1031D0000122012984F8BC2406D1A169012903D068
:1031E000816B41F48031816305F08CFB206804F031
:1031F000A3FE002084F8BC0410BD000010B50446F6
:10320000D0F8080504F0F4F92068D0F8001E41F069
:103210000101C0F8001E206A002808BF10BD4EF64C
:103220001050CEF20000016841F00601016010BDAF
:103230002DE9F041002800F08B8043F60808C4F225
:1032400002080446D8F8F8030D4600F0070088424B
:1032500007D288F8F853D8F8F80300F00700A8421E
:1032600076D12068810717D5410705D5D8F8001019
:1032700041F4E051C8F80010010705D5D8F8001056
:1032800041F46041C8F80010D8F80010A26821F09D
:10329000F0011143C8F80010C0073FD1D8F8F80377
:1032A00000F00700A84207D988F8F853D8F8F803C7
:1032B00000F00700A8424BD12068410707D5D8F895
:1032C0000010E26821F4E0511143C8F80010000733
:1032D00008D5D8F80000216920F4604040EAC10018
:1032E000C8F8000000F082F8D8F800104DF2907293
:1032F000C1F30311C0F60002515C40F2B40220FA9F
:1033000001F140F20400C2F200000068C2F20002C3
:103310001160FEF75DFF0020BDE8F0816068811E4E
:10332000022907D258F8081C89015CBF0120BDE8BA
:10333000F08111E0012807D158F8081C89035CBF0F
:103340000120BDE8F08107E058F8081C890703D484
:103350000120BDE8F08100BFD8F8001021F0030182
:103360000843C8F80000FEF703FF064641F288371D
:10337000D8F80000616800F00C00B0EB810F8DD030
:10338000FEF7F6FE801BB842F2D90320BDE8F081BB
:1033900040F2B400C2F200000068704740F2B4008E
:1033A00043F60801C2F20000C4F202010068096895
:1033B0004DF2A072C1F38221C0F60002515CC840F8
:1033C0007047000040F2B40043F60801C2F200006A
:1033D000C4F20201006809684DF2A072C1F34231E3
:1033E000C0F60002515CC8407047000010B543F6BB
:1033F0000404C4F20204606800F00C0142F20040D0
:103400000829C0F2F40007D0042918BF10BD41F20A
:103410000020C0F27A0010BD216801F03F0221684F
:1034200023684902C3F3881106D4A1FB00010023DD
:10343000FCF792FF07E000BF41F20020C0F27A00E3
:103440004843B0FBF2F021680222C1F3014102EBD4
:103450004101B0FBF1F010BD2DE9F04182B0002830
:103460006AD00446007843F60006C007C4F202069C
:103470000BD0B06800F00C00042840F0A180306848
:10348000800302D56068002856D0207880071AD5BE
:10349000B06810F00C0F09D0B06800F00C000828DC
:1034A00040F0A8807068400200F1A4803068800776
:1034B00002D5E06801283FD13068216920F0F8008A
:1034C00040EAC10030602078000739D420784007F6
:1034D0004ED4A5695DB3B06800F00C00082840F038
:1034E000BD80012D28D07068E16900F480028A4215
:1034F00022D1216A00F03F028A421DD147F6C071F5
:10350000626A0140B1EB821F16D1A26A0023CFF696
:10351000FF7303EBC23200F440316FF30F029142AC
:103520000AD1E16A00F07060B0EB016F04D10020B5
:1035300002B0BDE8F08100BF012002B0BDE8F0811B
:103540006069002840F20000C4F2472076D00121D3
:10355000C0F8801EFEF70CFE054600BF706F8007A6
:10356000B4D4FEF705FE401B0228F7D9DDE000BF0A
:10357000306C10F080580AD100200190306C40F07F
:1035800080503064306C00F080500190019847F218
:103590000007C4F200073868C00541D4386840F419
:1035A00080703860FEF7E4FD054600BF3868C0054E
:1035B00036D4FEF7DDFD401B0228F7D9B5E000BF89
:1035C000B06800F00C00082803D1706840023FF595
:1035D00056AF6068B0F5803F07D0B0F5A02F40F03F
:1035E0008D80306840F480203060306840F4803056
:1035F00030608DE0E068002852D00020C4F24720FF
:1036000001210160FEF7B4FD054600BF3068800768
:103610003FF552AFFEF7ACFD401B0228F6D984E01F
:10362000A068012805D005284ED1306F40F0040075
:103630003067306F40F0010030674FE00021C0F884
:10364000801EFEF795FD0546706F80077FF53EAF43
:10365000FEF78EFD401B0228F6D966E00027C4F273
:10366000472700203866FEF783FD022D05460BD163
:10367000306880015ED5FEF77BFD401B02284FF0CD
:103680000300F5D954E700BF306880017FF54FAFE4
:10369000FEF76EFD401B02284FF00300F4D947E708
:1036A0000020C4F2472000210160FEF761FD0546BD
:1036B000306880077FF507AFFEF75AFD401B0228F0
:1036C0004FF00300F4D933E7316F002821F00101F6
:1036D0003167316F21F0040131674DD0FEF748FDAD
:1036E000054641F2883700BF306F800756D4FEF799
:1036F0003FFD401BB842F7D917E000BF31680028F2
:1037000021F480313160316821F4802131604FD063
:10371000FEF72EFD054600BF306880033FF5B5AECD
:10372000FEF726FD401B6428F6D9032002B0BDE851
:10373000F08100BF04F11C052FCD08430021CFF616
:10374000FF7140EA821001EBC3316FF30F0140EAD1
:1037500005600843706001203866FEF709FD0446E5
:10376000306880013FF5E3AEFEF702FD001B022842
:103770004FF00300F4D9DBE6FEF7FAFC054641F210
:10378000883700BF306F800708D5FEF7F1FC401B7B
:10379000B8424FF00300F5D9CAE600BFB8F1000FF8
:1037A0007FF497AE306C20F08050306491E600BF1B
:1037B000FEF7DEFC054600BF306880037FF565AE8E
:1037C000FEF7D6FC401B64284FF00300F4D9AFE6A7
:1037D00070B538B10446406A30B10020206104F170
:1037E000140007E0012070BD6068B0F5827F03D04F
:1037F00004F11C00002101600026A66294F851002B
:1038000020B9204684F8506000F03CF8022084F88B
:10381000510094E80F0001F48271056802F404423B
:1038200025F040050560114403F40062236911444A
:1038300003F002026369114403F00102A369E56920
:10384000114403F40072114405F03802256A114452
:1038500005F08002A56A114305F40052114301608E
:10386000626A042101EA134102F01002114441602E
:10387000C16921F40061C1610120666584F85100CD
:10388000304670BD80B586B0016843F20000C4F2D6
:103890000100814202D006B080BD00BF002143F686
:1038A00030020191C4F20202536900F5504043F422
:1038B00080535361536903F480530193019B019139
:1038C000136843F001031360126802F001020192D1
:1038D000019AE02201920222CDE902210321049102
:1038E0000521059101A9FEF751FB06B080BD00003E
:1038F0002DE9F04383B0044690F85000012803D12D
:10390000022003B0BDE8F08301201E4615460F4695
:1039100084F85000FEF72CFC94F8511081460129E0
:1039200040F09880002F4FF0010018BF002D00F0EC
:103930009E80002E00F09B8094F851000021042806
:103940001CBF052084F851006165A563E687A68742
:103950002763E6862068A6862164616401684906BB
:1039600003D4016841F0400101606168731EE268A0
:10397000B1FA81F1B3FA83F3DDF8288049095B09D4
:10398000B2F5006F41EA03017AD131B137F8021B79
:10399000C1602763E08E0138E086012518F101003F
:1039A00031D101E0FEF7E4FBE08E18B9E08F00288A
:1039B00000F0D0802068816889070CD5E18E51B174
:1039C000012D08D1216B002531F8022BC260216343
:1039D000E18E0139E1868168C907E3D0E18F0029D2
:1039E000E0D0C068A16B012521F8020BA163E08F34
:1039F0000138E087D6E700BFFEF7BAFBA0EB09006D
:103A0000404580F0FD80E08E18B9E08F002800F07E
:103A1000A1802068816889070CD5E18E51B1012D04
:103A200008D1216B002531F8022BC2602163E18EA1
:103A30000139E1868168C907DED0E18F0029DBD03A
:103A4000C068A16B012521F8020BA163E08F01384A
:103A5000E087D1E76068B0F5827F07D1A0680028D1
:103A60004FF0020008BF042901D15BE702200121C9
:103A700084F85110002184F8501003B0BDE8F083A1
:103A800039B139780173206B01302063E08E013841
:103A9000E086012518F1010033D101E0FEF768FB53
:103AA000E08E10B9E08F002854D020688168890723
:103AB0000ED5E18E61B1012D0AD1216B0025097867
:103AC0000173216B206801312163E18E0139E186A8
:103AD0008168C907E2D0E18F0029DFD0C068A16BFF
:103AE00001250870A06B0130A063E08F0138E087EA
:103AF000D4E700BFFEF73CFBA0EB0900404580F097
:103B00008180E08E08B9E08F20B320688168890742
:103B10000ED5E18E61B1012D0AD1216B0025097806
:103B20000173216B206801312163E18E0139E18647
:103B30008168C907DED0E18F0029DBD0C068A16BA6
:103B400001250870A06B0130A063E08F0138E08789
:103B5000D0E700BF40F2B400C2F20000006849F6AE
:103B60008171C1F25E61A0FB0101480D4FF47A71D1
:103B7000484302906068B0F5827F0FD120468021D3
:103B800042464B4602F02AFA60B3606D40F02000D6
:103B9000606520206065012069E700BF029808B3D6
:103BA0000298013802902068806800061AD50298B1
:103BB000C0B102980138029020688068000611D5D3
:103BC000029878B102980138029020688068000657
:103BD00008D5029830B102980138029020688068B8
:103BE0000006DBD4A06800284FF000007FF43FAF50
:103BF00001902168CA68019289680191019936E7AC
:103C0000032034E7032032E7411E0020B0EB116FA0
:103C10001CBF012070474EF21002CEF2000251602C
:103C20004EF62351CEF20001F0230B700721906075
:103C300011607047704700007047000010B590F8A1
:103C40003C20012A4FF0020251D080F83D2002684A
:103C5000D2F804E0D2F808C00C682EF070032343B9
:103C600041F2FF74C4F20004A24253600EDC40F241
:103C7000FF73C4F200039A4216DCB2F1804F2BD0DE
:103C800040F20043C4F2000324E000BF40F2FF33DF
:103C9000C4F201039A4213DC41F60003C4F20003AC
:103CA0009A4219D0002313E040F60003C4F2000347
:103CB0009A4211D040F60043C4F200030AE000BF6C
:103CC00044F20003C4F201039A4205D040F20043DB
:103CD000C4F201039A4204D149682CF080031943CD
:103CE00091600121002280F83D1080F83C201046B0
:103CF00010BD0000002804BF0120704710B5044625
:103D000090F83D0028B9002084F83C00204600F0DF
:103D10001FF8022084F83D002068211D02F08CFA73
:103D2000012084F8460084F83E0084F83F0084F8BF
:103D3000400084F8410084F8420084F8430084F88D
:103D4000440084F8450084F83D00002010BD0000C8
:103D500080B582B00068A0F18040A0F500604FEA15
:103D6000B020042851D8DFE800F0031527504100A7
:103D70000020019043F64000C4F20200016841F0C7
:103D800004010160006800F004000190019802B095
:103D900080BD00BF0020019043F64000C4F2020045
:103DA000016841F008010160006800F0080001901E
:103DB000019802B080BD00BF0020019043F6400092
:103DC000C4F202000168002241F0100101600068A5
:103DD000042100F01000019001983620FEF748FA07
:103DE000362002B0BDE88040FEF732BA00200190D4
:103DF00043F64000C4F20200016841F04001016056
:103E0000006800F040000190019802B080BD000001
:103E100090F83D1001291CBF01207047022180F855
:103E20003D10006841F2FF72C168C4F20002904286
:103E300041F00101C1600DDC40F2FF71C4F20001EC
:103E4000884215DCB0F1804F2AD040F20041C4F224
:103E5000000123E040F2FF31C4F20101884213DC8B
:103E600041F60001C4F20001884219D0002113E09C
:103E700040F60001C4F20001884211D040F6004132
:103E8000C4F200010AE000BF44F20001C4F20101E3
:103E9000884205D040F20041C4F20101884206D1B7
:103EA000816801F00701062904BF002070470168FE
:103EB00041F00101016000207047000001460068E8
:103EC00041F21113C26822F00102C260026A1A4272
:103ED00004D00122002081F83D207047026A40F2A0
:103EE00044431A42F5D1026822F001020260012225
:103EF000002081F83D20704780B590F83C20012AD1
:103F00004FF0020200F0C28080F83D20D0F800C0DF
:103F10004FF67772DCF8083023EA0202CCF808206A
:103F20000B684F2B28DC1F2B44DD202B45D0302B7A
:103F300043D0402B40F0AC80D1F804E0C968DCF8F5
:103F40002030DCF8202022F00102CCF82020DCF820
:103F5000182022F0F00242EA011123F00A0242EA9C
:103F60000E02CCF81810CCF82020DCF8081041F034
:103F7000470121F0300180E06F2B27DDB3F5005FB2
:103F800048D0B3F5805F7AD0702B40F08180D1E9C2
:103F900001E3C968DCF8082043EA0E0322F47F42FB
:103FA00043EA01211143CCF80810DCF8081041F075
:103FB000770162E00BB1102B6AD1DCF8081021F018
:103FC0007001194341F0070157E000BF502B35D075
:103FD000602B5DD1D1F804E0C968DCF8203023F013
:103FE0001003CCF82030DCF81830DCF8202023F463
:103FF000704322F0A00243EA013142EA0E12CCF8EB
:104000001810CCF82020DCF8081041F0670121F0EE
:10401000100132E0D1E901E3C968DCF8082043EA85
:104020000E0322F47F4243EA01211143CCF8081029
:10403000DCF8081041F480411FE000BFD1F804E033
:10404000C968DCF82030DCF8202022F00102CCF82E
:104050002020DCF8182022F0F00242EA011123F0BF
:104060000A0242EA0E02CCF81810CCF82020DCF844
:10407000081041F0570121F02001CCF8081000226F
:10408000012180F83D10002180F83C10104680BDD1
:104090000122F5E77047000010B501680446086981
:1040A000800744BFC8685FEA807039D40869400758
:1040B00044BFC8685FEA40703ED40869000744BF47
:1040C000C8685FEA007045D40869C00644BFC86884
:1040D0005FEAC0604AD40869C0071CBFC8685FEACD
:1040E000C07051D10869000644BFC8685FEA00602B
:1040F00052D40869400644BFC8685FEA406053D4A0
:104100000869800646BFC8685FEA806010BD6FF02E
:10411000200220460A61BDE81040FFF78DBD00BFB8
:104120006FF002000861012020778869800743D082
:104130002046FFF7AFFF45E06FF004000861022062
:104140002077886910F4407F40D02046FFF7A2FF17
:1041500042E000BF6FF00800086104202077C869C2
:1041600080073DD02046FFF795FF3FE06FF010003D
:10417000086108202077C86910F4407F3AD02046B3
:10418000FFF788FF3CE000BF6FF0010008612046A8
:1041900000F080F92168A5E76FF0800008612046F3
:1041A000FFF748FD2168A4E76FF040000861204652
:1041B00000F072F92168A3E7204600F025F82046B8
:1041C00000F066F92168002020776FE7204600F0B4
:1041D0001BF8204600F05CF92168002020776CE78E
:1041E000204600F011F8204600F052F92168002026
:1041F000207769E7204600F007F8204600F048F9EC
:1042000021680020207766E7704700002DE9F04123
:1042100090F83C30012B04BF0220BDE8F0814FEA4A
:10422000B202032A00F2FC80DFE802F0023E7EBE0A
:10423000036840F200471A6A43F4806522F00102E5
:104240001A621C6A1A46D3F804E052F818CF8E6836
:1042500024F00204C4F20107BD4244EA060405D179
:10426000CE6824F00C0426F0040634430E68BD42E8
:1042700007D1D1E905572EF4407E45EA0E0545EAFF
:10428000070E2CF073073743C3F804E09F614F68B3
:1042900009695F631C629F6947F008079F619F6916
:1042A00027F004079F61B1E0036840F200481A6AF2
:1042B00043F4806522F010021A621C6A1A46D3F891
:1042C00004E052F818CF8F6824F02004C4F20108EB
:1042D000454544EA071407D1CF686FF0400624F043
:1042E000C00406EA071634430F68454507D1D1E9F3
:1042F00005562EF4406E4EEA850545EA860E2CF4EE
:10430000E64646EA0727C3F804E09F614F6809695B
:104310009F631C629F6947F400679F619F6927F450
:1043200080679F6171E000BF036840F200481A6A2D
:1043300043F4806522F480721A621C6A1A46D3F82C
:1043400004E052F81CCF8F6824F40074C4F2010812
:10435000454544EA072408D1CF6840F2FF463F02B2
:1043600024F4406427EA060634430F68454507D124
:10437000D1E905562EF4405E4EEA051545EA061EC3
:104380002CF073063743C3F804E0DF614F68096916
:10439000DF631C62DF6947F00807DF61DF6927F030
:1043A0000407DF6132E000BF036840F200451A6A8B
:1043B00043F4806722F480521A621A46D3F820C070
:1043C0005C6852F81CEFD1F800808E68C4F20105D9
:1043D000AF4204D14D6924F4804444EA85142CF49E
:1043E000005747EA06372EF4E64646EA08265C60A0
:1043F000DE614E6809691E641F62DF6947F4006769
:10440000DF61DF6927F48067DF6109021368194300
:1044100011600021002280F83C200846BDE8F081B0
:104420000121002280F83C200846BDE8F081000010
:10443000002804BF0120704710B5044690F83D00E5
:1044400028B9002084F83C00204600F01FF8022024
:1044500084F83D002068211D01F0EEFE012084F863
:10446000460084F83E0084F83F0084F8400084F859
:10447000410084F8420084F8430084F8440084F842
:10448000450084F83D00002010BD0000704700008A
:104490007047000070470000704700007047000040
:1044A00070470000B0B582B0044600680168C36878
:1044B000426901F02F05202D03F0200506D12DB112
:1044C000204602B0BDE8B04002F0DCB85FEA017CF3
:1044D0001EBF02F0010E03F4907212EB0E0255D1D2
:1044E000226B012A05D111F0100218BF13F010023F
:1044F00036D10A0622D513F080021FD094F83D1061
:10450000212941D1A168B1F5805F03D1216900293A
:1045100000F06C82216A4A1C226209784160E18CB9
:1045200001390A04E1842FD1C16821F08001C16002
:10453000C16841F04001C16002B0B0BD490623D559
:1045400013F0400120D0C16821F04001C16020215A
:10455000204684F83D1002B0BDE8B04000F0DEBE59
:10456000002101910168019141680191019941691E
:10457000490600F18B80A18DE28DE38D002B1CBFDD
:10458000891A5FEA01420CD102B0B0BDCA0718BF58
:1045900013F4807240F032814A0700F135813AE12C
:1045A000206850E8030F226820F4907042E803036B
:1045B000DBB1206850E8030F226820F4907042E8D5
:1045C000030393B1206850E8030F226820F4907031
:1045D00042E803034BB1206850E8030F226820F43F
:1045E000907042E80303002BDAD1206850E8050FF1
:1045F000226820F0010042E80503DBB1206850E8A2
:10460000050F226820F0010042E8050393B12068FD
:1046100050E8050F226820F0010042E805034BB185
:10462000206850E8050F226820F0010042E80503E9
:10463000002BDAD1202084F83E000020206320687F
:1046400050E8030F226820F0100042E80303DBB1BA
:10465000206850E8030F226820F0100042E80303AE
:1046600093B1206850E8030F226820F0100042E860
:1046700003034BB1206850E8030F226820F01000BC
:1046800042E80303002BDAD189B2B0E0A26B1168D3
:104690004B689DB2002D3FF477AFA18D8D42BFF4E2
:1046A00073AFE385D269B2F5807F00F09D8050E85A
:1046B000030F216820F4807041E80302E2B1206812
:1046C00050E8030F216820F4807041E803029AB19A
:1046D000206850E8030F216820F4807041E803024D
:1046E00052B1206850E8030F216820F4807041E83F
:1046F00003020AB12068DAE7206850E8050F216854
:1047000020F0010041E80502DAB1206850E8050F09
:10471000216820F0010041E8050292B1206850E8CC
:10472000050F216820F0010041E805024AB1206828
:1047300050E8050F216820F0010041E80502002A39
:10474000DAD1206850E8050F216820F0400041E8E8
:104750000502DAB1206850E8050F216820F040001A
:1047600041E8050292B1206850E8050F216820F069
:10477000400041E805024AB1206850E8050F216871
:1047800020F0400041E80502002ADAD1202084F818
:104790003E0000202063206850E8030F216820F0CD
:1047A000100041E80302DAB1206850E8030F2168E5
:1047B00020F0100041E8030292B1206850E8030F96
:1047C000216820F0100041E803024AB1206850E857
:1047D000030F216820F0100041E80302002ADAD11B
:1047E000A06BFDF773F9A18DE08D081A81B2204608
:1047F00002B0BDE8B040FFF751BE00BF226C42F0EE
:10480000010222644A0706D5BEF1000F03D0226CD4
:1048100042F0020222648A0706D5BEF1000F03D0DF
:10482000226C42F004022264BCF1000F06D555EA66
:104830000E0203D0226C42F008022264226C002A8D
:104840003FF4A2AE11F0200118BF002D03D0204686
:1048500001F018FF20684169226C01F0400102F06C
:104860000802891800F0A28050E8030F216820F4A4
:10487000907041E80302C2B3206850E8030F21683A
:1048800020F4907041E803027AB3206850E8030FE7
:10489000216820F4907041E8030232B3206850E8A8
:1048A000030F216820F4907041E80302EAB1206808
:1048B000DAE700BF206850E8050F216820F001000A
:1048C00041E80502DAB1206850E8050F216820F0C0
:1048D000010041E8050292B1206850E8050F216807
:1048E00020F0010041E805024AB1206850E8050FB8
:1048F000216820F0010041E80502002ADAD1206B8E
:10490000012824D1206850E8030F216820F010000E
:1049100041E80302DAB1206850E8030F216820F073
:10492000100041E8030292B1206850E8030F2168AB
:1049300020F0100041E803024AB1206850E8030F5C
:10494000216820F0100041E80302002ADAD120207B
:1049500084F83E00002020632068416949063FD565
:1049600050E8050F216820F0400041E805022AB315
:10497000206850E8050F216820F0400041E805025A
:10498000E2B1206850E8050F216820F0400041E8BE
:1049900005029AB1206850E8050F216820F0400018
:1049A00041E8050252B12068DAE700BF2046FFF770
:1049B00077FD0020206402B0B0BD00BFA06B78B1CD
:1049C00046F28D31C0F600010165FDF7C9F80028F7
:1049D0003FF4DAADA06B016D02B0BDE8B04008470E
:1049E000204602B0BDE8B040FFF75ABD216A31F859
:1049F000022B6FF35F224260216290E5002804BF22
:104A00000120704710B5044690F83D0028B90020F9
:104A100084F83C00204600F021F8242084F83D0072
:104A20002068C16821F40051C160204601F0AAFE4F
:104A30002068016921F490410161416921F02A0156
:104A40004161C16841F40051C1600020202120640F
:104A500084F83D1084F83E1010BD00002DE9F04FA1
:104A600087B00446006844F6FF71C4F20001884232
:104A70004FF000010691CDE90411CDE9021100F3D8
:104A80009F8044F20041C4F20001884200F002819C
:104A900044F60001C4F20001884200F0278144F688
:104AA0000041C4F20001884240F04B81002743F6E8
:104AB00030000197C4F202000169002541F4002191
:104AC00001610169C4F2020501F40021019101991B
:104AD000019701680DF1080A41F0010101600168C8
:104AE000022601F0010101910199019701684FF03F
:104AF000030B41F00401016000684FF0080800F06A
:104B000004000190019828465146CDE902660497B9
:104B1000CDF814B0CDF81880FDF738FA4FF480695D
:104B2000CDF8188046F2100805F500605146CDE931
:104B30000296CDE9047BC4F20208FDF727FA41F69C
:104B4000C42508F16000C2F200054FF00066402164
:104B5000C5E9000605F1080080E882022846C5E99B
:104B60000577C5E907776F62FDF7ECF8002818BFF5
:104B7000FCF782FA6563AC6341F6642508F1300006
:104B8000C2F2000585E8C1002846C5E90379C5E9F8
:104B90000577C5E907776F62FDF7D4F8002818BFDD
:104BA000FCF76AFA342006210022A563AC63FDF706
:104BB0005FFB3420FDF74CFB07B0BDE8F08F00BF72
:104BC00045F20001C4F20001884200F0BD8041F2CC
:104BD0000001C4F20101884200F0448141F2004129
:104BE000C4F20101884240F0AC80002643F6300058
:104BF0000196C4F20200416941F02001416141691E
:104C000001F02001019101990196016841F0040130
:104C10000160006802A900F0040001900198C02022
:104C200002900220CDE9030603200590082006909B
:104C30000020C4F2020000F50060FDF7A7F946F27B
:104C40001000C4F2020041F6444500F59260C2F241
:104C500000054FF0206140224FF4806385E8470053
:104C60002846C5E90436C5E90666C5E90866FDF7C4
:104C700069F8002818BFFCF7FFF947200721002238
:104C80006563AC63FDF7F4FA4720FDF7E1FA07B07E
:104C9000BDE8F08F002043F630010190C4F202011C
:104CA0000A6942F400320A610A6902F40032019290
:104CB000019A01900A6842F001020A60096801F055
:104CC0000101019101990C2102910221CDE903100A
:104CD00003200590072006900020C4F2020002A9DC
:104CE000FDF754F907B0BDE8F08F00BF002043F690
:104CF00030010190C4F202010A6942F480220A6183
:104D00000A6902F480220192019A01900A6842F035
:104D100002020A60096801F00201019101994FF451
:104D2000406102910221CDE9031003200590072084
:104D300006900020C4F2020000F5806002A9FDF791
:104D400025F907B0BDE8F08F002643F63000019644
:104D5000C4F202000169002741F480110161016978
:104D6000C4F2020701F480110191019901960168D2
:104D700002AD41F004010160016846F2100801F043
:104D8000040101910199019601684FF0020941F077
:104D90000801016000684FF0030A00F0080001906C
:104DA00001984FF4805002904FF0080B07F5006017
:104DB0002946C4F20208CDE90396CDF814A0CDF837
:104DC00018B0FDF7E3F80420CDE9020904A880E853
:104DD000400C07F540602946FDF7D8F841F68435C8
:104DE00008F1A800C2F200054FF000674021C5E9B4
:104DF000000705F108004FF4806980E84202284668
:104E0000C5E90566C5E907666E62FCF79BFF0028E9
:104E100018BFFCF731F96563AC6341F62435C2F283
:104E200000054FF48070C5E906602846C5E9008793
:104E3000C5E90266C5E90496C5E90866FCF782FF84
:104E4000002818BFFCF718F9352005210022A563BA
:104E5000AC63FDF70DFA3520FDF7FAF907B0BDE8B0
:104E6000F08F00BF002643F630000196C4F2020026
:104E7000416941F010014161416901F01001019166
:104E800001990196016841F001010160006802A9E1
:104E900000F00100019001984FF4C06002900220E0
:104EA000CDE9030603200590072006900020C4F2F8
:104EB0000200FDF76BF846F21000C4F2020041F662
:104EC000E43500F59560C2F200054FF00061402224
:104ED0004FF4806385E847002846C5E90436C5E9F4
:104EE0000666C5E90866FCF72DFF002818BFFCF729
:104EF000C3F82520082100226563AC63FDF7B8F9EB
:104F00002520FDF7A5F907B0BDE8F08F70B582B098
:104F1000044690F83E0020280ED113460A46002988
:104F20004FF0010018BF002B02D102B070BD00BFCE
:104F300094F83C00012803D1022002B070BD00BFEC
:104F4000012084F83C00002622202663A262A3856B
:104F5000266484F83E002168A06B46F2155C46F298
:104F6000716E46F29935C0F6000CC0F6000EC0F620
:104F700000050431C0E90FCEC0E91356FCF794FFD9
:104F800001962068016801914168019101992169A8
:104F900084F83C6031B300BF50E8030F216840F44F
:104FA000807041E80302EAB1206850E8030F2168ED
:104FB00040F4807041E80302A2B1206850E8030F7A
:104FC000216840F4807041E803025AB1206850E83B
:104FD000030F216840F4807041E8030212B1206899
:104FE000DAE700BF206850E8050F216840F00100B3
:104FF00041E80502E2B1206850E8050F216840F061
:10500000010041E805029AB1206850E8050F2168C7
:1050100040F0010041E8050252B1206850E8050F58
:10502000216840F0010041E80502002ADAD100BF02
:10503000206850E8050F216840F0400041E8050273
:10504000DAB1206850E8050F216840F0400041E8DF
:10505000050292B1206850E8050F216840F0400039
:1050600041E805024AB1206850E8050F216840F088
:10507000400041E80502002ADAD1002002B070BDEC
:1050800042F2283042F6B061C2F20000C2F20001E2
:105090000C22FFF73BBF0000704700002DE9F043F2
:1050A00081B0044690F83D0020280DD10F4600291C
:1050B0004FF0010000F0DD801646002A00F0D98094
:1050C00094F83C00012803D1022001B0BDE8F08330
:1050D000012084F83C004FF0000921201D46C4F84F
:1050E000409084F83D00FDF743F8A684E684A1686B
:1050F0000646B1F5805F07D1206900281CBF3846FD
:105100004F46B846074601E04FF0000884F83C904F
:10511000E18C2068002900F08B8005F101090AE08C
:1051200047B317F8011B4160E18C0139E184E18C40
:10513000002900F07D8001680906F1D4B9F1000F63
:105140000AD0EDB1FDF714F8801BA84218D82068EA
:1051500001680906F6D5E3E701680906E0D40168AD
:1051600009065CBF01685FEA0161D9D401680906DC
:10517000F2D5D5E738F8021B00276FF35F21D2E79D
:10518000206850E8030F216820F4D07041E8030242
:10519000BAB3206850E8030F216820F4D07041E8CA
:1051A000030272B3206850E8030F216820F4D07026
:1051B00041E803022AB3206850E8030F216820F475
:1051C000D07041E80302002ADAD11AE0206850E8E2
:1051D000050F216820F0010041E80502DAB12068DE
:1051E00050E8050F216820F0010041E8050292B166
:1051F000206850E8050F216820F0010041E8050211
:105200004AB1206850E8050F216820F0010041E80C
:105210000502002ADAD1202084F83D0084F83E00FF
:10522000002084F83C00032001B0BDE8F08300BFFB
:105230000168490619D4FDB1691C0DD10168490600
:1052400013D4016849065CBF01685FEA41610CD470
:1052500001684906F2D508E0FCF78AFF801BA842E6
:105260000AD8206800684006F6D5202084F83D0062
:10527000002001B0BDE8F083206850E8030F2168EA
:1052800020F4D07041E80302E2B3206850E8030F35
:10529000216820F4D07041E803029AB3206850E8F6
:1052A000030F216820F4D07041E8030252B3206854
:1052B00050E8030F216820F4D07041E80302002A6F
:1052C000DAD11FE0206850E8050F216820F00100C6
:1052D00041E80502002A9ED0206850E8050F2168A9
:1052E00020F0010041E80502002A3FF494AF206855
:1052F00050E8050F216820F0010041E80502002A6E
:105300003FF489AF206850E8050F216820F00100C4
:1053100041E80502002AD5D17DE700007047000072
:10532000FEE70000B0B584B041F6CC1042F20001B7
:1053300001230024C2F20000C4F20101C0F6007390
:10534000012503944FF48032047680F82040C0E9B0
:105350000A34C56180F8304080E81600C0E9034493
:105360004561FBF72FFF002818BFFBF785FE0420DF
:10537000CDE9000541F6CC10C2F200006946029466
:10538000FBF780FE002818BFFBF776FE04B0B0BD27
:1053900010B541F6142046F20041C2F20000C4F2FA
:1053A000000140F2001402220023C0F2010480E850
:1053B0000E0000F10C014FF4602C4FF4800E81E8D8
:1053C000085084618383FCF7FFF9002808BF10BDF3
:1053D000BDE81040FBF750BE10B541F63C2046F644
:1053E0000001C2F20000C4F20001022200234FF0CB
:1053F000012480E80E0000F10C014FF4602C4FF402
:10540000800E81E8085084618383FCF7DDF9002871
:1054100008BF10BDBDE81040FBF72EBE80B582B0BE
:10542000002043F630010190C4F202010A6842F400
:1054300000120A600A6802F400120192019A0090B8
:105440000868002240F4800008600868002100F429
:105450008000009000980B20FCF70AFF0B20FCF75F
:10546000F7FE0D2000210022FCF702FF0D20FCF7C3
:10547000EFFE0F2000210022FCF7FAFE0F20FCF7C0
:10548000E7FE2F2000210022FCF7F2FE2F20FCF780
:10549000DFFE452000210022FCF7EAFE4520FCF754
:1054A000D7FE462000210022FCF7E2FE462002B093
:1054B000BDE88040FCF7CCBE2DE9F04F87B000245A
:1054C00043F6300006940194C4F20200016840F2F1
:1054D000004841F0040101600168C4F2020801F0D3
:1054E0000401019101990194016808F5806541F07A
:1054F000800101600168002201F0800101910199A1
:10550000019401684EF2381641F001010160016812
:1055100001F00101019101990194016841F002013A
:105520000160016801F00201019101990194016893
:1055300041F00801016000684EF2381100F00800E7
:10554000019001982846FCF70DFEA8F580673846C3
:105550004FF4807100224FF48079FCF703FE40463F
:1055600080210022FCF7FEFD029602AE4FF0010AF8
:1055700028463146CDE903A40594FCF707FD042035
:10558000CDE902044FF0020B28463146CDF810B0A9
:10559000FCF7FCFC38463146CDE9029ACDE90444DB
:1055A000FCF7F4FC4FF40040CDE9020438463146E4
:1055B0000494FCF7EBFC4FF4006002904FF44410AD
:1055C000CDE9030428463146FCF7E0FC1820CDE97C
:1055D0000204404631460494FCF7D8FC202002A97E
:1055E00081E8110840463146FCF7D0FC8020CDE927
:1055F000020A40463146CDE90444FCF7C7FC2820A6
:1056000002210022FCF734FE2820FCF721FE07B01F
:10561000BDE8F08F80B542F2B01043F20001C2F253
:105620000000C4F201014FF48272002380E80E00F2
:1056300000F114014FF4007C4FF0180E81E808507F
:105640000A21C0E90333C0E90833C0E90A31FEF793
:10565000BFF8002808BF80BDBDE88040FBF70CBD47
:1056600070B592B040F20044C4F2020442F2082045
:105670000021A4F5F632C2F2000044F29F1309267D
:105680000B91CDE909110791CDE90511CDE9031180
:10569000CDE90111C0E90023C0E902160161816171
:1056A000FEF728FB002818BFFBF7E6FC4FF48050FC
:1056B000089042F20820C2F2000008A9FEF71CFC84
:1056C000002818BFFBF7D8FC42F20820C2F2000005
:1056D000FEF7AEFE002818BFFBF7CEFC602042F2BA
:1056E000082501900520C2F200050290002601A9BC
:1056F0002846002203960596FEF788FD002818BF6D
:10570000FBF7BAFC286841F60001C4F200018842A8
:105710000D961DD040F60041C4F2000188422BD006
:1057200040F60001C4F20001884243D100200C90F1
:1057300043F63000C4F20200016841F0020101604A
:10574000006800F002000C900C98402026E000BF9A
:1057500000200C9043F63000C4F20200016841F0D2
:1057600002010160006800F002000C900C984FF4F8
:1057700080400D90092013E000200C9043F630008B
:10578000C4F202000168A4F5806441F001010160E7
:10579000006800F001000C900C9801200D90022090
:1057A00002210E910021CDE90F1111900DA9204683
:1057B000FCF7ECFB12B070BDB0B594B040F2004401
:1057C000C4F2020442F250200021A4F5FE32C2F2DB
:1057D00000004FF6FF730D91CDE90B110991CDE952
:1057E0000711CDE90511CDE90311CDE90111C0E99A
:1057F0000021C0E9021301618161FEF77BFA0028F4
:1058000018BFFBF739FC4FF480500A9042F2502049
:10581000C2F200000AA9FEF76FFB002818BFFBF7D1
:105820002BFC42F25020C2F20000FEF701FE0028DD
:1058300018BFFBF721FC42F250200025C2F2000005
:1058400008A9CDE90855FEF7F9F9002818BFFBF7BC
:1058500013FC6020CDE901050395059542F2502522
:10586000C2F2000501A928460022FEF7CFFC00285D
:1058700018BFFBF701FC286841F60002C4F20002E1
:10588000002190420F911DD040F60041C4F200016A
:1058900088422BD040F60001C4F20001884243D177
:1058A00000200E9043F63000C4F20200016841F07F
:1058B00002010160006800F002000E900E98402086
:1058C00026E000BF43F630000E91C4F202000168EA
:1058D00041F002010160006800F002000E900E9895
:1058E0004FF480400F90092014E000BF00200E907C
:1058F00043F63000C4F202000168A4F5806441F070
:1059000001010160006800F001000E900E98012076
:105910000F900220022110910021CDE91111139066
:105920000FA92046FCF732FB14B0B0BDB0B594B05F
:1059300040F20044C4F2020442F298200021A4F58F
:10594000FC32C2F200004FF0FF330D91CDE90B1194
:105950000991CDE90711CDE90511CDE90311CDE993
:105960000111C0E90021C0E9021301618161FEF764
:10597000C1F9002818BFFBF77FFB4FF480500A9055
:1059800042F29820C2F200000AA9FEF7B5FA0028F8
:1059900018BFFBF771FB42F29820C2F20000FEF73D
:1059A00047FD002818BFFBF767FB42F2982000254F
:1059B000C2F2000008A9CDE90855FEF73FF900281A
:1059C00018BFFBF759FB6020CDE90105039505954C
:1059D00042F29825C2F2000501A928460022FEF7EE
:1059E00015FC002818BFFBF747FB286841F60002AA
:1059F000C4F20002002190420F911DD040F60041F8
:105A0000C4F2000188422BD040F60001C4F200012C
:105A1000884243D100200E9043F63000C4F20200C9
:105A2000016841F002010160006800F002000E9080
:105A30000E98402026E000BF43F630000E91C4F2DD
:105A40000200016841F002010160006800F00200FC
:105A50000E900E984FF480400F90092014E000BF84
:105A600000200E9043F63000C4F202000168A4F555
:105A7000806441F001010160006800F001000E90B7
:105A80000E9801200F900220022110910021CDE9F3
:105A9000111113900FA92046FCF778FA14B0B0BD8D
:105AA00080B582B042F2E02041F200020021C2F251
:105AB0000000C4F20002A72340F2E73CCDE9001148
:105AC000C0E90023C0E9021C8161FEF713F9002838
:105AD00018BFFBF7D1FA42F2E020C2F2000069469B
